:2000000012C02CC02BC02AC029C028C027C026C025C0A0C023C022C021C020C01FC01EC027
:200020001DC01CC01BC011241FBECFE5D4E0DEBFCDBF10E0A0E6B0E0ECEFF7E002C005907A
:200040000D92AA37B107D9F720E0AAE7B0E001C01D92AC37B207E1F773D1CEC3D1CF9098F6
:20006000889A8FEB93E00197F1F700C00000889890EA9A95F1F780B3E7E4F3E03197F1F7FF
:2000800000C00000817008959098889A92E09A95F1F700C08111889880EA8A95F1F788983C
:2000A00008959098889A82E08A95F1F700C0889895E29A95F1F7000080B398E79A95F1F7B9
:2000C00081700895CF93DF93D82FC8E08D2F8170DBDFD695C150D1F7DF91CF910895CF9395
:2000E000DF93C8E0D0E0DDDF20E8829FC0011124D695D82BC150B9F78D2FDF91CF91089503
:20010000CF93F894ACDF8CECDDDF84E4DBDFC9DF8823E9F3A4DF8CECD5DF8EE4D3DF85E0A9
:20012000D1DF9DDF8CECCEDF8EEBCCDFD8DFC82FD6DF7894782F60E06C0F711D882777FDC8
:200140008095982F42D220E030E040E85DE3F1D2CF9108951F920F920FB60F9211242F93C8
:200160003F934F935F936F937F938F939F93AF93BF93EF93FF9380917A0090917B0001960B
:2001800090937B0080937A0080917A0090917B00843691057CF0F894B3DF609364007093D9
:2001A0006500809366009093670010927B0010927A007894FF91EF91BF91AF919F918F91A2
:2001C0007F916F915F914F913F912F910F900FBE0F901F9018958FEF82BB81BB889885BBF1
:2001E00090E294BB88BB87B3876087BB0895CF93DF93CDB7DEB72A970FB6F894DEBF0FBE92
:20020000CDBF2AE0E0E7F0E0DE01119601900D922A95E1F728B3276028BB6230710541F0E6
:200220006330710539F06130710529F4C09803C0C19801C0C298FE01E80FF91F81818095B4
:2002400082BB2A960FB6F894DEBF0FBECDBFDF91CF9108954F925F926F927F928F929F92B7
:20026000AF92BF92EF92FF920F931F93CF93DF932B013C0120E030E0A90108D1882324F4F3
:2002800077FA709477F8709420E030E048EC52E4C301B2014AD288239CF53CC02E2D3F2D6A
:2002A000402F512FC301B201F5D05CD14B015C01882777FD8095982F88D12E2D3F2D402FAF
:2002C000512F37D29B01AC01C301B2017AD0462F572F682F792F2A013B0120E030E040E2B8
:2002E00051E46E2D7F2D802F912FD4D0E62EF72E082F192FBE01C4017ADF219779F611C0E2
:200300000F2EFDEC4F2EFCEC5F2EF7EC6F2EF2E47F2EF02DC3E0D0E0E12CF12C00E211E451
:20032000BDCFDF91CF911F910F91FF90EF90BF90AF909F908F907F906F905F904F900895AE
:200340004ADF9A9911C08091680090916900A0916A00B0916B0080936C0090936D00A093E4
:200360006E00B0936F0023C09B9911C08091600090916100A0916200B091630080936C00CC
:2003800090936D00A0936E00B0936F0010C08091640090916500A0916600B091670080935D
:2003A0006C0090936D00A0936E00B0936F0060916C0070916D0080916E0090916F004ADFEB
:2003C000C0CF5058BB27AA270ED075C166D130F06BD120F031F49F3F11F41EF45BC10EF444
:2003E000E095E7FB51C1E92F77D180F3BA17620773078407950718F071F49EF58FC10EF494
:20040000E0950B2EBA2FA02D0B01B90190010C01CA01A0011124FF27591B99F0593F50F474
:20042000503E68F11A16F040A22F232F342F4427585FF3CF469537952795A795F040539554
:20044000C9F77EF41F16BA0B620B730B840BBAF09150A1F0FF0FBB1F661F771F881FC2F777
:200460000EC0BA0F621F731F841F48F4879577956795B795F7959E3F08F0B3CF9395880FE1
:2004800008F09927EE0F979587950895D9D008F481E008950CD00FC107D140F0FED030F07D
:2004A00021F45F3F19F0F0C0511139C1F3C014D198F39923C9F35523B1F3951B550BBB27CB
:2004C000AA2762177307840738F09F5F5F4F220F331F441FAA1FA9F333D00E2E3AF0E0E87D
:2004E00030D091505040E695001CCAF729D0FE2F27D0660F771F881FBB1F261737074807C0
:20050000AB07B0E809F0BB0B802DBF01FF2793585F4F2AF09E3F510568F0B6C000C15F3F2C
:20052000ECF3983EDCF3869577956795B795F7959F5FC9F7880F911D9695879597F90895C5
:20054000E1E0660F771F881FBB1F621773078407BA0720F0621B730B840BBA0BEE1F88F724
:20056000E095089504D06894B111D9C00895BCD088F09F5790F0B92F9927B751A0F0D1F026
:20058000660F771F881F991F1AF0BA95C9F712C0B13081F0C3D0B1E00895C0C0672F782F36
:2005A0008827B85F39F0B93FCCF3869577956795B395D9F73EF490958095709561957F4F25
:2005C0008F4F9F4F0895E89409C097FB3EF490958095709561957F4F8F4F9F4F9923A9F085
:2005E000F92F96E9BB279395F695879577956795B795F111F8CFFAF4BB0F11F460FF1BC08F
:200600006F5F7F4F8F4F9F4F16C0882311F096E911C0772321F09EE8872F762F05C06623C6
:2006200071F096E8862F70E060E02AF09A95660F771F881FDAF7880F9695879597F90895BF
:20064000990F0008550FAA0BE0E8FEEF16161706E807F907C0F012161306E407F50798F084
:20066000621B730B840B950B39F40A2661F0232B242B252B21F408950A2609F4A140A695BA
:200680008FEF811D811D089597F99F6780E870E060E008959FEF80EC089500240A94161653
:2006A000170618060906089500240A9412161306140605060895092E0394000C11F4882304
:2006C00052F0BB0F40F4BF2B11F460FF04C06F5F7F4F8F4F9F4F089557FD9058440F551FC0
:2006E00059F05F3F71F04795880F97FB991F61F09F3F79F087950895121613061406551FD5
:20070000F2CF4695F1DF08C0161617061806991FF1CF86957105610508940895E894BB2738
:2007200066277727CB0197F908958ADF08F48FEF08950BD0C0CFB1DF28F0B6DF18F09523AE
:2007400009F0A2CFA7CF1124EACFC6DFA0F3959FD1F3950F50E0551F629FF001729FBB276E
:20076000F00DB11D639FAA27F00DB11DAA1F649F6627B00DA11D661F829F2227B00DA11DD2
:20078000621F739FB00DA11D621F839FA00D611D221F749F3327A00D611D231F849F600DD2
:2007A000211D822F762F6A2F11249F5750408AF0E1F088234AF0EE0FFF1FBB1F661F771F11
:2007C000881F91505040A9F79E3F510570F05CCFA6CF5F3FECF3983EDCF3869577956795E9
:2007E000B795F795E7959F5FC1F7FE2B880F911D9695879597F90895F894FFCF0000F04182
:1608000000005E420000A0409A9931417E0CB69ECCDAFA0EFEDE55
:00000001FF
